:100000000C9434000C9451000C9451000C94510049
:100010000C9451000C9451000C9451000C9451001C
:100020000C9451000C9451000C9451000C946400F9
:100030000C9451000C9451000C9453000C945100FA
:100040000C9451000C9451000C9451000C945100EC
:100050000C9451000C9451000C9451000C945100DC
:100060000C9451000C94510011241FBECFEFD8E026
:10007000DEBFCDBF11E0A0E0B1E0E0E8F2E002C0F9
:1000800005900D92A630B107D9F721E0A6E0B1E0C6
:1000900001C01D92A830B207E1F70E94FD000C9448
:1000A0003E010C9400001F920F920FB60F92112484
:1000B0008F93809107018F5F809307018F910F903D
:1000C0000FBE0F901F9018951F920F920FB60F92B0
:1000D00011248F93809106018F5F809306018F9189
:1000E0000F900FBE0F901F9018958BE987BD84B5B8
:1000F000826084BD85B5856085BDEEE6F0E08081D7
:10010000826080830895E1E8F0E080818B608083E5
:10011000EFE6F0E080818260808308951092810094
:10012000109280000895882311F0289A01C0289821
:10013000662311F02B9A01C02B98442311F02C9ABE
:1001400008952C9808950F931F93CF93DF93EC019C
:1001500007E813E18091060181110AC08881998125
:10016000909389008093880040E060E081E032C095
:1001700080910601813049F48A819B8190938900A6
:100180008093880040E061E024C0809106018230C5
:1001900041F48C819D81909389008093880041E097
:1001A00017C0809106018330C1F4888199812A812A
:1001B0003B81820F931F9801281B390BC9012C81A9
:1001C0003D81821B930B909389008093880040E0CF
:1001D00060E080E00E949300BDCF809106018430F2
:1001E00008F4B8CF1092060140E060E080E0DF91B3
:1001F000CF911F910F910C949300CF93DF9300D078
:1002000000D000D0CDB7DEB786E0E0E0F1E0DE015F
:10021000119601900D928A95E1F778948FEF84B949
:10022000569A0E9475000E948300809107018823DE
:1002300001F189819A81883022E0920780F4833C21
:10024000914010F0FF2059F00B5F1F4F1A83098374
:100250001C830B831E830D83FF24F3940AC0055077
:1002600011091A8309831C830B831E830D832D9A26
:10027000F12CCE0101960E94A300D5CFF894FFCFB8
:06028000F401F401F40199
:00000001FF
